{
  "_format": "hh-sol-artifact-1",
  "contractName": "CoachAgent",
  "sourceName": "contracts/CoachAgent.sol",
  "abi": [
    {
      "inputs": [
        {
          "internalType": "address",
          "name": "_coach",
          "type": "address"
        }
      ],
      "stateMutability": "nonpayable",
      "type": "constructor"
    },
    {
      "inputs": [],
      "name": "AlreadyCommitted",
      "type": "error"
    },
    {
      "inputs": [],
      "name": "AlreadyRevealed",
      "type": "error"
    },
    {
      "inputs": [],
      "name": "HashMismatch",
      "type": "error"
    },
    {
      "inputs": [],
      "name": "InvalidAccuracy",
      "type": "error"
    },
    {
      "inputs": [],
      "name": "NotCoach",
      "type": "error"
    },
    {
      "inputs": [],
      "name": "NotCommitted",
      "type": "error"
    },
    {
      "anonymous": false,
      "inputs": [
        {
          "indexed": true,
          "internalType": "uint8",
          "name": "mw",
          "type": "uint8"
        },
        {
          "indexed": false,
          "internalType": "bytes32",
          "name": "hash",
          "type": "bytes32"
        },
        {
          "indexed": false,
          "internalType": "uint256",
          "name": "timestamp",
          "type": "uint256"
        }
      ],
      "name": "PicksCommitted",
      "type": "event"
    },
    {
      "anonymous": false,
      "inputs": [
        {
          "indexed": true,
          "internalType": "uint8",
          "name": "mw",
          "type": "uint8"
        },
        {
          "indexed": false,
          "internalType": "uint16[5]",
          "name": "picks",
          "type": "uint16[5]"
        },
        {
          "indexed": false,
          "internalType": "uint8",
          "name": "accuracy",
          "type": "uint8"
        }
      ],
      "name": "PicksRevealed",
      "type": "event"
    },
    {
      "inputs": [
        {
          "internalType": "uint8",
          "name": "",
          "type": "uint8"
        }
      ],
      "name": "accuracy",
      "outputs": [
        {
          "internalType": "uint8",
          "name": "",
          "type": "uint8"
        }
      ],
      "stateMutability": "view",
      "type": "function"
    },
    {
      "inputs": [],
      "name": "coachWallet",
      "outputs": [
        {
          "internalType": "address",
          "name": "",
          "type": "address"
        }
      ],
      "stateMutability": "view",
      "type": "function"
    },
    {
      "inputs": [
        {
          "internalType": "uint8",
          "name": "",
          "type": "uint8"
        }
      ],
      "name": "commitments",
      "outputs": [
        {
          "internalType": "bytes32",
          "name": "",
          "type": "bytes32"
        }
      ],
      "stateMutability": "view",
      "type": "function"
    },
    {
      "inputs": [
        {
          "internalType": "uint8",
          "name": "mw",
          "type": "uint8"
        }
      ],
      "name": "getRevealed",
      "outputs": [
        {
          "internalType": "uint16[5]",
          "name": "",
          "type": "uint16[5]"
        }
      ],
      "stateMutability": "view",
      "type": "function"
    },
    {
      "inputs": [
        {
          "internalType": "uint8",
          "name": "mw",
          "type": "uint8"
        }
      ],
      "name": "hasRevealed",
      "outputs": [
        {
          "internalType": "bool",
          "name": "",
          "type": "bool"
        }
      ],
      "stateMutability": "view",
      "type": "function"
    },
    {
      "inputs": [
        {
          "internalType": "uint8",
          "name": "mw",
          "type": "uint8"
        },
        {
          "internalType": "bytes32",
          "name": "hash",
          "type": "bytes32"
        }
      ],
      "name": "publishCommitment",
      "outputs": [],
      "stateMutability": "nonpayable",
      "type": "function"
    },
    {
      "inputs": [
        {
          "internalType": "uint8",
          "name": "mw",
          "type": "uint8"
        },
        {
          "internalType": "uint16[5]",
          "name": "picks",
          "type": "uint16[5]"
        },
        {
          "internalType": "uint8",
          "name": "_accuracy",
          "type": "uint8"
        }
      ],
      "name": "revealPicks",
      "outputs": [],
      "stateMutability": "nonpayable",
      "type": "function"
    }
  ],
  "bytecode": "0x60a0346100ae57601f61063138819003918201601f19168301916001600160401b038311848410176100b3578084926020946040528339810103126100ae57516001600160a01b0381168082036100ae571561007c5760805260405161056790816100ca823960805181818160850152818160ee01526103fc0152f35b60405162461bcd60e51b815260206004820152600a6024820152690f4cae4de40c6dec2c6d60b31b6044820152606490fd5b600080fd5b634e487b7160e01b600052604160045260246000fdfe608060408181526004918236101561001657600080fd5b600092833560e01c918263119a5a8a146103da57508163314f812b1461033b57816371863c371461030757816390b80fe0146102d4578163ad0e79cd146102a4578163b8f2c414146100b8575063e661238d1461007257600080fd5b346100b457816003193601126100b457517f00000000000000000000000000000000000000000000000000000000000000006001600160a01b03168152602090f35b5080fd5b919050346102a05760e03660031901126102a0576100d46104af565b903660c41161029c5760c4359160ff8316809303610298577f00000000000000000000000000000000000000000000000000000000000000006001600160a01b031633036102895760ff16928385526001906020916001835260ff84882054161561027a5785875281835260ff848820541661026b576064851161025c578351838101610160816104f6565b60a0825260c082019180831067ffffffffffffffff84111761024957828752519020878952888552858920540361023b57508587526002835283872060248892895b6005811061020a575050505560038252828620805460ff199081168617909155915281852080549091166001179055517feb79f48bcb87114f42fffc5d7ae8a3f880cc5850737ec2cc44243c96614f78469160c09190610201826104f6565b60a0820152a280f35b909193843561ffff908181168091036102375783881b91821b1990921691901b17938601919081016101a2565b8c80fd5b633f4d605360e01b81529050fd5b634e487b7160e01b8a526041855260248afd5b5082516312aa4f0360e21b8152fd5b50825163a89ac15160e01b8152fd5b50825163205e472d60e21b8152fd5b815162e9234960e11b81528490fd5b8480fd5b8380fd5b8280fd5b5050346100b45760203660031901126100b4578060209260ff6102c56104af565b16815280845220549051908152f35b5050346100b45760203660031901126100b45760ff81602093826102f66104af565b168152600385522054169051908152f35b9050346102a05760203660031901126102a0578160209360ff928361032a6104af565b168252855220541690519015158152f35b5050346100b4576020806003193601126102a05760ff6103596104af565b60a08451610366816104c4565b36903716835260028152818320825190549261ffff84818096168452818160101c16858501528181861c1683850152818160301c166060850152821c1660808301526103b1826104c4565b519390845b600583106103c35760a086f35b8380600192878551168152019201920191906103b6565b909291503461029c578160031936011261029c576103f66104af565b602435917f00000000000000000000000000000000000000000000000000000000000000006001600160a01b031633036104a2575060ff1692838552600160205260ff83862054166104945750907faca881828f3ff7bf3493a0ba052b38d47448c381ca2e35973cc010acb991c5c5918385528460205280828620556001602052818520600160ff198254161790558151908152426020820152a280f35b82516317fd8aab60e31b8152fd5b62e9234960e11b81528490fd5b6004359060ff821682036104bf57565b600080fd5b60a0810190811067ffffffffffffffff8211176104e057604052565b634e487b7160e01b600052604160045260246000fd5b6024906000916000915b6005831061050e5750505050565b813561ffff8116809103610298578152600192909201916020918201910161050056fea264697066735822122096de7d0daf1ec43a6d9696250de9ee10bce42c03b6fd5e27c19be660fb3fa10d64736f6c63430008180033",
  "linkReferences": {},
  "deployedLinkReferences": {}
}