{
  "_format": "hh-sol-artifact-1",
  "contractName": "Pick5Pool",
  "sourceName": "contracts/Pick5Pool.sol",
  "abi": [
    {
      "inputs": [
        {
          "internalType": "address",
          "name": "_oracle",
          "type": "address"
        },
        {
          "internalType": "contract IERC20",
          "name": "_usdt",
          "type": "address"
        },
        {
          "internalType": "contract IAavePool",
          "name": "_aavePool",
          "type": "address"
        },
        {
          "internalType": "contract IERC20",
          "name": "_aUsdt",
          "type": "address"
        },
        {
          "internalType": "uint256",
          "name": "_lockTime",
          "type": "uint256"
        },
        {
          "internalType": "uint256",
          "name": "_endTime",
          "type": "uint256"
        }
      ],
      "stateMutability": "nonpayable",
      "type": "constructor"
    },
    {
      "inputs": [],
      "name": "AlreadyClaimed",
      "type": "error"
    },
    {
      "inputs": [],
      "name": "AlreadyFinalized",
      "type": "error"
    },
    {
      "inputs": [],
      "name": "AlreadyJoined",
      "type": "error"
    },
    {
      "inputs": [],
      "name": "AlreadySeeded",
      "type": "error"
    },
    {
      "inputs": [],
      "name": "AlreadySubmitted",
      "type": "error"
    },
    {
      "inputs": [],
      "name": "AlreadyWithdrawn",
      "type": "error"
    },
    {
      "inputs": [],
      "name": "BadTimes",
      "type": "error"
    },
    {
      "inputs": [],
      "name": "HasParticipants",
      "type": "error"
    },
    {
      "inputs": [],
      "name": "InvalidLineup",
      "type": "error"
    },
    {
      "inputs": [],
      "name": "LengthMismatch",
      "type": "error"
    },
    {
      "inputs": [],
      "name": "NoParticipants",
      "type": "error"
    },
    {
      "inputs": [],
      "name": "NotJoined",
      "type": "error"
    },
    {
      "inputs": [],
      "name": "NotOracle",
      "type": "error"
    },
    {
      "inputs": [],
      "name": "NotWinner",
      "type": "error"
    },
    {
      "inputs": [
        {
          "internalType": "address",
          "name": "owner",
          "type": "address"
        }
      ],
      "name": "OwnableInvalidOwner",
      "type": "error"
    },
    {
      "inputs": [
        {
          "internalType": "address",
          "name": "account",
          "type": "address"
        }
      ],
      "name": "OwnableUnauthorizedAccount",
      "type": "error"
    },
    {
      "inputs": [],
      "name": "ReentrancyGuardReentrantCall",
      "type": "error"
    },
    {
      "inputs": [
        {
          "internalType": "address",
          "name": "token",
          "type": "address"
        }
      ],
      "name": "SafeERC20FailedOperation",
      "type": "error"
    },
    {
      "inputs": [],
      "name": "ScoresNotSubmitted",
      "type": "error"
    },
    {
      "inputs": [],
      "name": "TooEarly",
      "type": "error"
    },
    {
      "inputs": [],
      "name": "TournamentLocked",
      "type": "error"
    },
    {
      "inputs": [],
      "name": "TournamentNotEnded",
      "type": "error"
    },
    {
      "inputs": [],
      "name": "ZeroAmount",
      "type": "error"
    },
    {
      "inputs": [],
      "name": "ZeroOracle",
      "type": "error"
    },
    {
      "anonymous": false,
      "inputs": [
        {
          "indexed": true,
          "internalType": "address",
          "name": "user",
          "type": "address"
        },
        {
          "indexed": false,
          "internalType": "uint256",
          "name": "amount",
          "type": "uint256"
        }
      ],
      "name": "DepositWithdrawn",
      "type": "event"
    },
    {
      "anonymous": false,
      "inputs": [
        {
          "indexed": true,
          "internalType": "address",
          "name": "admin",
          "type": "address"
        },
        {
          "indexed": false,
          "internalType": "uint256",
          "name": "amount",
          "type": "uint256"
        }
      ],
      "name": "EmergencyWithdraw",
      "type": "event"
    },
    {
      "anonymous": false,
      "inputs": [
        {
          "indexed": false,
          "internalType": "uint256",
          "name": "prizeAmount",
          "type": "uint256"
        },
        {
          "indexed": false,
          "internalType": "uint256",
          "name": "yieldEarned",
          "type": "uint256"
        }
      ],
      "name": "Finalized",
      "type": "event"
    },
    {
      "anonymous": false,
      "inputs": [
        {
          "indexed": true,
          "internalType": "address",
          "name": "user",
          "type": "address"
        },
        {
          "indexed": false,
          "internalType": "uint16[5]",
          "name": "lineup",
          "type": "uint16[5]"
        },
        {
          "indexed": false,
          "internalType": "uint256",
          "name": "participantIndex",
          "type": "uint256"
        }
      ],
      "name": "Joined",
      "type": "event"
    },
    {
      "anonymous": false,
      "inputs": [
        {
          "indexed": true,
          "internalType": "address",
          "name": "previousOwner",
          "type": "address"
        },
        {
          "indexed": true,
          "internalType": "address",
          "name": "newOwner",
          "type": "address"
        }
      ],
      "name": "OwnershipTransferred",
      "type": "event"
    },
    {
      "anonymous": false,
      "inputs": [
        {
          "indexed": true,
          "internalType": "address",
          "name": "winner",
          "type": "address"
        },
        {
          "indexed": false,
          "internalType": "uint256",
          "name": "amount",
          "type": "uint256"
        }
      ],
      "name": "PrizeClaimed",
      "type": "event"
    },
    {
      "anonymous": false,
      "inputs": [
        {
          "indexed": true,
          "internalType": "address",
          "name": "winner",
          "type": "address"
        },
        {
          "indexed": false,
          "internalType": "uint128",
          "name": "winningScore",
          "type": "uint128"
        }
      ],
      "name": "ScoresSubmitted",
      "type": "event"
    },
    {
      "anonymous": false,
      "inputs": [
        {
          "indexed": false,
          "internalType": "uint256",
          "name": "amount",
          "type": "uint256"
        }
      ],
      "name": "Seeded",
      "type": "event"
    },
    {
      "anonymous": false,
      "inputs": [
        {
          "indexed": false,
          "internalType": "address[]",
          "name": "tied",
          "type": "address[]"
        },
        {
          "indexed": false,
          "internalType": "address",
          "name": "winner",
          "type": "address"
        },
        {
          "indexed": false,
          "internalType": "uint256",
          "name": "seed",
          "type": "uint256"
        }
      ],
      "name": "TieBreak",
      "type": "event"
    },
    {
      "inputs": [],
      "name": "DEPOSIT",
      "outputs": [
        {
          "internalType": "uint256",
          "name": "",
          "type": "uint256"
        }
      ],
      "stateMutability": "view",
      "type": "function"
    },
    {
      "inputs": [],
      "name": "aUsdt",
      "outputs": [
        {
          "internalType": "contract IERC20",
          "name": "",
          "type": "address"
        }
      ],
      "stateMutability": "view",
      "type": "function"
    },
    {
      "inputs": [],
      "name": "aavePool",
      "outputs": [
        {
          "internalType": "contract IAavePool",
          "name": "",
          "type": "address"
        }
      ],
      "stateMutability": "view",
      "type": "function"
    },
    {
      "inputs": [],
      "name": "claimPrize",
      "outputs": [],
      "stateMutability": "nonpayable",
      "type": "function"
    },
    {
      "inputs": [
        {
          "internalType": "address",
          "name": "",
          "type": "address"
        }
      ],
      "name": "depositWithdrawn",
      "outputs": [
        {
          "internalType": "bool",
          "name": "",
          "type": "bool"
        }
      ],
      "stateMutability": "view",
      "type": "function"
    },
    {
      "inputs": [],
      "name": "emergencyAdminWithdraw",
      "outputs": [],
      "stateMutability": "nonpayable",
      "type": "function"
    },
    {
      "inputs": [],
      "name": "endTime",
      "outputs": [
        {
          "internalType": "uint256",
          "name": "",
          "type": "uint256"
        }
      ],
      "stateMutability": "view",
      "type": "function"
    },
    {
      "inputs": [],
      "name": "finalizeAndDistribute",
      "outputs": [],
      "stateMutability": "nonpayable",
      "type": "function"
    },
    {
      "inputs": [],
      "name": "finalized",
      "outputs": [
        {
          "internalType": "bool",
          "name": "",
          "type": "bool"
        }
      ],
      "stateMutability": "view",
      "type": "function"
    },
    {
      "inputs": [
        {
          "internalType": "address",
          "name": "user",
          "type": "address"
        }
      ],
      "name": "getLineup",
      "outputs": [
        {
          "internalType": "uint16[5]",
          "name": "",
          "type": "uint16[5]"
        }
      ],
      "stateMutability": "view",
      "type": "function"
    },
    {
      "inputs": [
        {
          "internalType": "address",
          "name": "",
          "type": "address"
        }
      ],
      "name": "hasJoined",
      "outputs": [
        {
          "internalType": "bool",
          "name": "",
          "type": "bool"
        }
      ],
      "stateMutability": "view",
      "type": "function"
    },
    {
      "inputs": [
        {
          "internalType": "uint16[5]",
          "name": "lineup",
          "type": "uint16[5]"
        }
      ],
      "name": "joinTournament",
      "outputs": [],
      "stateMutability": "nonpayable",
      "type": "function"
    },
    {
      "inputs": [],
      "name": "lockTime",
      "outputs": [
        {
          "internalType": "uint256",
          "name": "",
          "type": "uint256"
        }
      ],
      "stateMutability": "view",
      "type": "function"
    },
    {
      "inputs": [],
      "name": "oracle",
      "outputs": [
        {
          "internalType": "address",
          "name": "",
          "type": "address"
        }
      ],
      "stateMutability": "view",
      "type": "function"
    },
    {
      "inputs": [],
      "name": "owner",
      "outputs": [
        {
          "internalType": "address",
          "name": "",
          "type": "address"
        }
      ],
      "stateMutability": "view",
      "type": "function"
    },
    {
      "inputs": [
        {
          "internalType": "uint256",
          "name": "",
          "type": "uint256"
        }
      ],
      "name": "participants",
      "outputs": [
        {
          "internalType": "address",
          "name": "",
          "type": "address"
        }
      ],
      "stateMutability": "view",
      "type": "function"
    },
    {
      "inputs": [],
      "name": "participantsLength",
      "outputs": [
        {
          "internalType": "uint256",
          "name": "",
          "type": "uint256"
        }
      ],
      "stateMutability": "view",
      "type": "function"
    },
    {
      "inputs": [],
      "name": "prizeAmount",
      "outputs": [
        {
          "internalType": "uint128",
          "name": "",
          "type": "uint128"
        }
      ],
      "stateMutability": "view",
      "type": "function"
    },
    {
      "inputs": [],
      "name": "prizeClaimed",
      "outputs": [
        {
          "internalType": "bool",
          "name": "",
          "type": "bool"
        }
      ],
      "stateMutability": "view",
      "type": "function"
    },
    {
      "inputs": [],
      "name": "renounceOwnership",
      "outputs": [],
      "stateMutability": "nonpayable",
      "type": "function"
    },
    {
      "inputs": [
        {
          "internalType": "address",
          "name": "",
          "type": "address"
        }
      ],
      "name": "scores",
      "outputs": [
        {
          "internalType": "uint128",
          "name": "",
          "type": "uint128"
        }
      ],
      "stateMutability": "view",
      "type": "function"
    },
    {
      "inputs": [],
      "name": "scoresSubmitted",
      "outputs": [
        {
          "internalType": "bool",
          "name": "",
          "type": "bool"
        }
      ],
      "stateMutability": "view",
      "type": "function"
    },
    {
      "inputs": [],
      "name": "seedAmount",
      "outputs": [
        {
          "internalType": "uint256",
          "name": "",
          "type": "uint256"
        }
      ],
      "stateMutability": "view",
      "type": "function"
    },
    {
      "inputs": [
        {
          "internalType": "uint256",
          "name": "amount",
          "type": "uint256"
        }
      ],
      "name": "seedPool",
      "outputs": [],
      "stateMutability": "nonpayable",
      "type": "function"
    },
    {
      "inputs": [
        {
          "internalType": "address[]",
          "name": "users",
          "type": "address[]"
        },
        {
          "internalType": "uint128[]",
          "name": "points",
          "type": "uint128[]"
        },
        {
          "internalType": "uint256",
          "name": "randomSeed",
          "type": "uint256"
        }
      ],
      "name": "submitScores",
      "outputs": [],
      "stateMutability": "nonpayable",
      "type": "function"
    },
    {
      "inputs": [
        {
          "internalType": "address",
          "name": "newOwner",
          "type": "address"
        }
      ],
      "name": "transferOwnership",
      "outputs": [],
      "stateMutability": "nonpayable",
      "type": "function"
    },
    {
      "inputs": [],
      "name": "usdt",
      "outputs": [
        {
          "internalType": "contract IERC20",
          "name": "",
          "type": "address"
        }
      ],
      "stateMutability": "view",
      "type": "function"
    },
    {
      "inputs": [],
      "name": "winner",
      "outputs": [
        {
          "internalType": "address",
          "name": "",
          "type": "address"
        }
      ],
      "stateMutability": "view",
      "type": "function"
    },
    {
      "inputs": [],
      "name": "winningScore",
      "outputs": [
        {
          "internalType": "uint128",
          "name": "",
          "type": "uint128"
        }
      ],
      "stateMutability": "view",
      "type": "function"
    },
    {
      "inputs": [],
      "name": "withdrawDeposit",
      "outputs": [],
      "stateMutability": "nonpayable",
      "type": "function"
    }
  ],
  "bytecode": "0x610140346200021457601f6200200938819003918201601f1916830191906001600160401b0383118484101762000219578160c09285926040958652833981010312620002145781516001600160a01b03808216929183810362000214576200006b602086016200022f565b83860151918383168303620002145762000088606088016200022f565b9360a06080890151980151963315620001fc576000543360018060a01b03198216176000558751923391167f8be0079c531659141344cd1fd0a4f28419497f9722a3daafe3b4186f6b6457e0600080a360017f9b779b17422d0df92223018b32b4d1fa46e071723d6817e2486d003becc55f005515620001ed575085871015620001dc5760805260a05260c05260e0526101009283526101209182525190611dc49283620002458439608051838181610ea0015261115d015260a0518381816103c30152818161083c0152818161092501528181610b210152818161102901528181611620015281816116b5015261181c015260c0518381816104300152818161096901528181610b7301528181610dad015261188e015260e0518381816107ff01528181610ade01526110a501525182818161022a01526117c00152518181816107a20152818161118601526115e80152f35b8451630cdb81f360e01b8152600490fd5b636ab74eb360e11b8152600490fd5b8651631e4fbdf760e01b815260006004820152602490fd5b600080fd5b634e487b7160e01b600052604160045260246000fd5b51906001600160a01b0382168203620002145756fe60406080815260048036101561001457600080fd5b600091823560e01c8063025d26bd146117e35780630d668087146117a8578063117df0881461164f5780632f48ab7d1461160b5780633197cbb6146115d057806335c1d349146115905780634158506a146115725780635026f613146110fc578063546216f1146110d45780637047ec181461109057806370740ac914610f97578063715018a614610f3a57806376dd110f14610ef7578063785fa62714610ecf5780637dc0d1d014610e8b578063877f4e1214610e4c5780638da5cb5b14610e245780639042bbf314610e005780639db8512014610ddc578063a03e4bc314610d98578063a52ec4a714610d59578063b128511d14610a75578063b3f05b9714610a4e578063c5774a3f14610a2f578063d3f86a001461077e578063d81c8e5214610760578063dfbf53ae14610733578063e5f7322f14610687578063e74be2dd146102045763f2fde38b1461016a57600080fd5b34610200576020366003190112610200576001600160a01b038235818116939192908490036101fc5761019b611c1e565b83156101e6575050600054826bffffffffffffffffffffffff60a01b821617600055167f8be0079c531659141344cd1fd0a4f28419497f9722a3daafe3b4186f6b6457e0600080a380f35b51631e4fbdf760e01b8152908101849052602490fd5b8480fd5b8280fd5b509190346106835760a0366003190112610683573660a41161068357610228611c4a565b7f0000000000000000000000000000000000000000000000000000000000000000421015610675573382526020906003825260ff93848185205416610669579392919082945b84861660058082101561034d5761ffff8061029061028b85611cf1565b611c0f565b16158015610334575b6103245760019283810189811161031157845b6102c4575b505050506001969096018516955061026e565b8981168481101561030b5783806102e961028b6102e361028b88611cf1565b94611cf1565b169116146102fb5784018916846102ac565b855163727552e360e11b81528790fd5b506102b1565b634e487b7160e01b895260118752602489fd5b5050505163727552e360e11b8152fd5b506103e88161034561028b86611cf1565b161015610299565b8584868533845260038252808420926001938460ff198254161790556002835281852081908691875b8787600583106106415750505050558054916801000000000000000083101561062e5784830182556103a783611a93565b9080549160031b60018060a01b03928333831b921b19161790557f0000000000000000000000000000000000000000000000000000000000000000906000908351926323b872dd60e01b835233865260249330855288624c4b40948560445260648180865af18a60005114811615610619575b81875260006060521561060457509089939291817f00000000000000000000000000000000000000000000000000000000000000001690600087518b63095ea7b360e01b92838152858c5287895260448180875af1908d600051148216156105f5575b89521561055e575b50813b15610550578560849281958951978896879563617ba03760e01b8752168c860152840152306044840152600060648401525af180156105545761053c575b5050519285845b60058210610517575050505060a08201527f7500e4b67ad8d5e840d07e0546b11153eb264da6b09232f6cf00f6b9c11021af60c03392a2600080516020611d6f8339815191525580f35b83359061ffff821680920361053857908152928201929086019082016104cd565b8880fd5b61054590611b11565b6105505785876104c6565b8580fd5b83513d84823e3d90fd5b9091929394955061056f8383611d03565b156105de578960008851928152848a5286885260448180865af18b600051148116156105bf575b818852156105aa57908b9594939291610485565b635274afe760e01b8152908316818801528490fd5b8b8115166105d457823b15153d151616610596565b503d6000823e3d90fd5b8651635274afe760e01b8152848316818a01528690fd5b90833b15153d1516169061047d565b635274afe760e01b8152908216818701528390fd5b8a8115166105d457823b15153d15161661041a565b634e487b7160e01b865260418252602486fd5b9091929461064e86611c0f565b9084881b9161ffff809116831b921b19161794019101610376565b51621d934160e11b8152fd5b825163118d2e6960e31b8152fd5b5080fd5b509034610200576020908160031936011261072f57356001600160a01b0381169081900361072f5760a083516106bc81611b3b565b369037835260028152818320825190549261ffff84818096168452818160101c16858501528181861c1683850152818160301c166060850152821c16608083015261070682611b3b565b519390845b600583106107185760a086f35b83806001928785511681520192019201919061070b565b8380fd5b838234610683578160031936011261068357600654905160089190911c6001600160a01b03168152602090f35b83823461068357816003193601126106835760209051624c4b408152f35b509034610200578260031936011261020057610798611c1e565b6107a0611c4a565b7f000000000000000000000000000000000000000000000000000000000000000062093a808101809111610a1c574210610a0e578054610a005781516370a0823160e01b80825230838301526020916001600160a01b039083816024817f000000000000000000000000000000000000000000000000000000000000000086165afa9081156109c95787916109d3575b50838161090f575b50507f0000000000000000000000000000000000000000000000000000000000000000938551928352309083015282826024818488165afa9182156109055786926108cd575b506108af827f5fafa99d0643513820be26656b45130b01e1c03062e1266bf36f88cbd3bd9695958389541690611c7a565b8554169351908152a26001600080516020611d6f8339815191525580f35b9391508284813d83116108fe575b6108e58183611b57565b810103126108f957925190926108af61087e565b600080fd5b503d6108db565b85513d88823e3d90fd5b8651631a4ca37b60e21b81526001600160a01b037f00000000000000000000000000000000000000000000000000000000000000008516168782019081526020810193909352306040840152918290819060600103818a867f0000000000000000000000000000000000000000000000000000000000000000165af19081156109c95784916109a0575b5080610838565b813d83116109c2575b6109b38183611b57565b810103126108f9578238610999565b503d6109a9565b86513d89823e3d90fd5b90508381813d83116109f9575b6109ea8183611b57565b810103126108f9575138610830565b503d6109e0565b905163a755e2d760e01b8152fd5b905163085de62560e01b8152fd5b634e487b7160e01b845260118252602484fd5b8382346106835781600319360112610683576020906001549051908152f35b83823461068357816003193601126106835760209060ff60075460801c1690519015158152f35b5034610200578260031936011261020057610a8e611c4a565b60ff6006541615610d4c5760075460ff8160801c16610d3e5760ff60801b1916600160801b1760075580516370a0823160e01b80825230848301529260209190856001600160a01b0384846024817f000000000000000000000000000000000000000000000000000000000000000085165afa938415610d34579085918395610cff575b508651631a4ca37b60e21b81527f000000000000000000000000000000000000000000000000000000000000000082166001600160a01b038116868301908152602081019790975230604088015295909384929183919082906060015b03927f0000000000000000000000000000000000000000000000000000000000000000165af18015610cf557908491610ccc575b5050805494624c4b409580870296870403610cb957906024849286519485938492835230908301525afa908115610caf578591610c62575b507fb968440accd1ce5fa60b00de8bb8d8487eb2fda3c3701fb30fea3f69aa910a4893610c0791611c02565b906001600160801b0382166001600160801b03196008541617600855600154808311600014610c5a57610c3a9083611c02565b905b8351928352820152a16001600080516020611d6f8339815191525580f35b508490610c3c565b90508181813d8311610ca8575b610c798183611b57565b810103126108f957517fb968440accd1ce5fa60b00de8bb8d8487eb2fda3c3701fb30fea3f69aa910a48610bdb565b503d610c6f565b83513d87823e3d90fd5b634e487b7160e01b875260118252602487fd5b813d8311610cee575b610cdf8183611b57565b810103126108f9578238610ba3565b503d610cd5565b85513d89823e3d90fd5b9250935081813d8311610d2d575b610d178183611b57565b810103126108f95783610b6f8892519490610b12565b503d610d0d565b86513d84823e3d90fd5b505163475a253560e01b8152fd5b51634bf5695f60e11b8152fd5b50903461020057602036600319011261020057356001600160a01b0381169081900361020057818360ff92602095526009855220541690519015158152f35b838234610683578160031936011261068357517f00000000000000000000000000000000000000000000000000000000000000006001600160a01b03168152602090f35b83823461068357816003193601126106835760209060ff6006541690519015158152f35b83823461068357816003193601126106835760209060ff600a541690519015158152f35b838234610683578160031936011261068357905490516001600160a01b039091168152602090f35b50903461020057602036600319011261020057356001600160a01b0381169081900361020057818360ff92602095526003855220541690519015158152f35b838234610683578160031936011261068357517f00000000000000000000000000000000000000000000000000000000000000006001600160a01b03168152602090f35b8382346106835781600319360112610683576020906001600160801b03600854169051908152f35b50903461020057602036600319011261020057356001600160a01b038116908190036102005781836001600160801b039260209552600585522054169051908152f35b8334610f945780600319360112610f9457610f53611c1e565b600080546001600160a01b0319811682556001600160a01b03167f8be0079c531659141344cd1fd0a4f28419497f9722a3daafe3b4186f6b6457e08280a380f35b80fd5b5034610200578260031936011261020057610fb0611c4a565b60ff60075460801c1615610d4c5760065460081c6001600160a01b03908116923384900361108257600a549060ff821661107457509160209160017f95681e512bc0fe659e195e06c283eada494316f3d801213e48e7101af92bf7709460ff191617600a5561104d6001600160801b03958660085416907f0000000000000000000000000000000000000000000000000000000000000000611c7a565b60065460081c1693600854169051908152a26001600080516020611d6f8339815191525580f35b8351630c8d9eab60e31b8152fd5b82516330c6392160e11b8152fd5b838234610683578160031936011261068357517f00000000000000000000000000000000000000000000000000000000000000006001600160a01b03168152602090f35b8382346106835781600319360112610683576020906001600160801b03600754169051908152f35b509190346106835760603660031901126106835767ffffffffffffffff92813584811161072f576111309036908401611ae0565b9490916024358281116105505761114a9036908601611ae0565b90946001600160a01b03939091906044357f000000000000000000000000000000000000000000000000000000000000000086163303611562577f000000000000000000000000000000000000000000000000000000000000000042106115525760ff6006541661154257828a0361152f5783548a0361152f57891561151f57889992969950889789938a5b81811061145f57508a906112016111ec87611bd6565b966111f98a519889611b57565b808852611bd6565b9c60209a8b88019e8f90601f1901903690378c845b8481106113fe575050505050505060019160018451146000146112d05750505051156112bb5750817fca444fbe8d4fc8681e3a9c4953b08f4514b8e4192a92474d7b69bd74a1e919cd9495965116905b60068054600780546fffffffffffffffffffffffffffffffff19166001600160801b039990991698891790556001600160a81b031916600884901b610100600160a81b0316176001179055519485521692a280f35b603290634e487b7160e01b6000525260246000fd5b60009a939a9594919295194301904382116113eb578b51908651918a83019386855240888401526060830152606082526080820190828210908211176113d65786525190208a519182156113c35750869161132f919b969b0686611bee565b51169383519960608b019160608c525180925260808b0193918a5b8181106113ae575050505097807f9a34e97730bb3febb7eb6af47350b8c9fdafc0422db59a2f49b880130fdb8653927fca444fbe8d4fc8681e3a9c4953b08f4514b8e4192a92474d7b69bd74a1e919cd98999a8689840152858301520390a1611266565b8351891686529489019492890192820161134a565b634e487b7160e01b8b526012905260248afd5b604184634e487b7160e01b6000525260246000fd5b634e487b7160e01b8b526011835260248bfd5b60019161141461140f83868b611b79565b611b89565b6001600160801b0390811691161461142f575b018d90611216565b61144261143d828787611b79565b611b9d565b8d61145661144f89611bb1565b988d611bee565b91169052611427565b94898d6114bb849f9c9d948f8c8b918f61148f61143d8561140f976114898f838e61140f92611b79565b9a611b79565b168152600560205220946001600160801b0395868096166001600160801b031982541617905588611b79565b84821692168210156114e957505050506114d961140f858b84611b79565b98600180955b019b90989b6111d6565b6114fc61140f898f969f889b969b611b79565b161461150b575b6001906114df565b94611517600191611bb1565b959050611503565b84516308b6a47360e41b81528490fd5b84516001621398b960e31b031981528490fd5b8451639fbfc58960e01b81528490fd5b8451630c5fd11960e11b81528490fd5b8451631bc2178f60e01b81528490fd5b50903461020057826003193601126102005760209250549051908152f35b508234610f94576020366003190112610f945782359254831015610f9457506115ba602092611a93565b905491519160018060a01b039160031b1c168152f35b838234610683578160031936011261068357602090517f00000000000000000000000000000000000000000000000000000000000000008152f35b838234610683578160031936011261068357517f00000000000000000000000000000000000000000000000000000000000000006001600160a01b03168152602090f35b5034610200578260031936011261020057611668611c4a565b60ff60075460801c1615610d4c57338352600360205260ff81842054161561179b57338352600960205260ff818420541661178e573383526009602052808320600160ff198254161790557f000000000000000000000000000000000000000000000000000000000000000060009282519163a9059cbb60e01b85523382526020624c4b40958660245260448180855af160016000511481161561176e575b8385521561175157505050519081527f4482101800a5c2e900f4156e57e05e19ffd7b366cde579553d723fd3abb2180e60203392a26001600080516020611d6f8339815191525580f35b635274afe760e01b83526001600160a01b03169082015260249150fd5b600181151661178457813b15153d151616611707565b833d6000823e3d90fd5b51636507689f60e01b8152fd5b5163c394a43360e01b8152fd5b838234610683578160031936011261068357602090517f00000000000000000000000000000000000000000000000000000000000000008152f35b503461020057602036600319011261020057813590611800611c1e565b611808611c4a565b8115611a84576001928354611a76578284557f000000000000000000000000000000000000000000000000000000000000000082516323b872dd60e01b87523383526024903082528560445260208860648180875af187895114811615611a58575b8186528860605215611a3e5750835163095ea7b360e01b8089526001600160a01b037f000000000000000000000000000000000000000000000000000000000000000081168087528885528a95919490939192909160208760448180885af1908b885114821615611a2f575b89521561199e575b50823b156101fc576084928886928951988997889663617ba03760e01b885216908601528401523060448401528160648401525af180156119945761195c575b507ffe8b095e1a768e83a862933c32f2bd9b62b7b87f8fc8843d83ccce205208b6569160209151908152a1600080516020611d6f8339815191525580f35b916020919461198b7ffe8b095e1a768e83a862933c32f2bd9b62b7b87f8fc8843d83ccce205208b65694611b11565b9491509161191e565b82513d87823e3d90fd5b9091929394506119ae8484611d03565b15611a18578651908a5283865287825260208a60448180875af1898b51148116156119fa575b818852156119e7579089949392916118de565b635274afe760e01b815282851681870152fd5b89811516611a0f57833b15153d1516166119d4565b503d8a823e3d90fd5b508551635274afe760e01b81529184168286015290fd5b90843b15153d151616906118d6565b635274afe760e01b81526001600160a01b03831681850152fd5b87811516611a6d57833b15153d15161661186a565b503d88823e3d90fd5b90516308627e3960e31b8152fd5b51631f2a200560e01b81529050fd5b600454811015611aca5760046000527f8a35acfbc15ff81a39ae7d344fd709f28e8600b4aa8c65c6b64bfe7fe36bd19b0190600090565b634e487b7160e01b600052603260045260246000fd5b9181601f840112156108f95782359167ffffffffffffffff83116108f9576020808501948460051b0101116108f957565b67ffffffffffffffff8111611b2557604052565b634e487b7160e01b600052604160045260246000fd5b60a0810190811067ffffffffffffffff821117611b2557604052565b90601f8019910116810190811067ffffffffffffffff821117611b2557604052565b9190811015611aca5760051b0190565b356001600160801b03811681036108f95790565b356001600160a01b03811681036108f95790565b6000198114611bc05760010190565b634e487b7160e01b600052601160045260246000fd5b67ffffffffffffffff8111611b255760051b60200190565b8051821015611aca5760209160051b010190565b91908203918211611bc057565b3561ffff811681036108f95790565b6000546001600160a01b03163303611c3257565b60405163118cdaa760e01b8152336004820152602490fd5b600080516020611d6f8339815191526002815414611c685760029055565b604051633ee5aeb560e01b8152600490fd5b60405163a9059cbb60e01b60009081526001600160a01b039384166004526024949094529260209060448180855af1600160005114811615611cdb575b8360405215611cc557505050565b635274afe760e01b835216600482015260249150fd5b600181151661178457813b15153d151616611cb7565b6005811015611aca5760051b60040190565b60405163095ea7b360e01b60009081526001600160a01b0390931660045260248390529192919060208460448180855af1936001815114851615611d49575b5050604052565b60018593951516611d6457503b15153d151616913880611d42565b84903d90823e3d90fdfe9b779b17422d0df92223018b32b4d1fa46e071723d6817e2486d003becc55f00a2646970667358221220f3c7a0fccdb93cee9d83f806014bf4594f6d0f0ef9bc2434b70baff9530282d364736f6c63430008180033",
  "linkReferences": {},
  "deployedLinkReferences": {}
}