{
  "_format": "hh-sol-artifact-1",
  "contractName": "Pick5Pool",
  "sourceName": "contracts/Pick5Pool.sol",
  "abi": [
    {
      "inputs": [
        {
          "internalType": "address",
          "name": "_oracle",
          "type": "address"
        },
        {
          "internalType": "contract IERC20",
          "name": "_usdt",
          "type": "address"
        },
        {
          "internalType": "contract IAavePool",
          "name": "_aavePool",
          "type": "address"
        },
        {
          "internalType": "contract IERC20",
          "name": "_aUsdt",
          "type": "address"
        },
        {
          "internalType": "uint256",
          "name": "_lockTime",
          "type": "uint256"
        },
        {
          "internalType": "uint256",
          "name": "_endTime",
          "type": "uint256"
        }
      ],
      "stateMutability": "nonpayable",
      "type": "constructor"
    },
    {
      "inputs": [],
      "name": "AlreadyClaimed",
      "type": "error"
    },
    {
      "inputs": [],
      "name": "AlreadyEmergencyWithdrawn",
      "type": "error"
    },
    {
      "inputs": [],
      "name": "AlreadyFinalized",
      "type": "error"
    },
    {
      "inputs": [],
      "name": "AlreadyJoined",
      "type": "error"
    },
    {
      "inputs": [],
      "name": "AlreadySeeded",
      "type": "error"
    },
    {
      "inputs": [],
      "name": "AlreadySubmitted",
      "type": "error"
    },
    {
      "inputs": [],
      "name": "AlreadyWithdrawn",
      "type": "error"
    },
    {
      "inputs": [],
      "name": "BadTimes",
      "type": "error"
    },
    {
      "inputs": [],
      "name": "EmergencyActiveErr",
      "type": "error"
    },
    {
      "inputs": [],
      "name": "EmergencyAlreadyActive",
      "type": "error"
    },
    {
      "inputs": [],
      "name": "EmergencyNotActive",
      "type": "error"
    },
    {
      "inputs": [],
      "name": "EmergencyNotElapsed",
      "type": "error"
    },
    {
      "inputs": [],
      "name": "HasParticipants",
      "type": "error"
    },
    {
      "inputs": [],
      "name": "InvalidLineup",
      "type": "error"
    },
    {
      "inputs": [],
      "name": "LengthMismatch",
      "type": "error"
    },
    {
      "inputs": [],
      "name": "NoParticipants",
      "type": "error"
    },
    {
      "inputs": [],
      "name": "NotJoined",
      "type": "error"
    },
    {
      "inputs": [],
      "name": "NotOracle",
      "type": "error"
    },
    {
      "inputs": [],
      "name": "NotWinner",
      "type": "error"
    },
    {
      "inputs": [
        {
          "internalType": "address",
          "name": "owner",
          "type": "address"
        }
      ],
      "name": "OwnableInvalidOwner",
      "type": "error"
    },
    {
      "inputs": [
        {
          "internalType": "address",
          "name": "account",
          "type": "address"
        }
      ],
      "name": "OwnableUnauthorizedAccount",
      "type": "error"
    },
    {
      "inputs": [],
      "name": "PoolFull",
      "type": "error"
    },
    {
      "inputs": [],
      "name": "ReentrancyGuardReentrantCall",
      "type": "error"
    },
    {
      "inputs": [
        {
          "internalType": "address",
          "name": "token",
          "type": "address"
        }
      ],
      "name": "SafeERC20FailedOperation",
      "type": "error"
    },
    {
      "inputs": [],
      "name": "ScoresNotSubmitted",
      "type": "error"
    },
    {
      "inputs": [],
      "name": "TooEarly",
      "type": "error"
    },
    {
      "inputs": [],
      "name": "TournamentLocked",
      "type": "error"
    },
    {
      "inputs": [],
      "name": "TournamentNotEnded",
      "type": "error"
    },
    {
      "inputs": [],
      "name": "UserMismatch",
      "type": "error"
    },
    {
      "inputs": [],
      "name": "ZeroAmount",
      "type": "error"
    },
    {
      "inputs": [],
      "name": "ZeroOracle",
      "type": "error"
    },
    {
      "anonymous": false,
      "inputs": [
        {
          "indexed": true,
          "internalType": "address",
          "name": "user",
          "type": "address"
        },
        {
          "indexed": false,
          "internalType": "uint256",
          "name": "amount",
          "type": "uint256"
        }
      ],
      "name": "DepositWithdrawn",
      "type": "event"
    },
    {
      "anonymous": false,
      "inputs": [
        {
          "indexed": true,
          "internalType": "address",
          "name": "by",
          "type": "address"
        },
        {
          "indexed": false,
          "internalType": "uint256",
          "name": "timestamp",
          "type": "uint256"
        }
      ],
      "name": "EmergencyTriggered",
      "type": "event"
    },
    {
      "anonymous": false,
      "inputs": [
        {
          "indexed": true,
          "internalType": "address",
          "name": "user",
          "type": "address"
        },
        {
          "indexed": false,
          "internalType": "uint256",
          "name": "amount",
          "type": "uint256"
        }
      ],
      "name": "EmergencyUserWithdrawn",
      "type": "event"
    },
    {
      "anonymous": false,
      "inputs": [
        {
          "indexed": true,
          "internalType": "address",
          "name": "admin",
          "type": "address"
        },
        {
          "indexed": false,
          "internalType": "uint256",
          "name": "amount",
          "type": "uint256"
        }
      ],
      "name": "EmergencyWithdraw",
      "type": "event"
    },
    {
      "anonymous": false,
      "inputs": [
        {
          "indexed": false,
          "internalType": "uint256",
          "name": "prizeAmount",
          "type": "uint256"
        },
        {
          "indexed": false,
          "internalType": "uint256",
          "name": "yieldEarned",
          "type": "uint256"
        }
      ],
      "name": "Finalized",
      "type": "event"
    },
    {
      "anonymous": false,
      "inputs": [
        {
          "indexed": true,
          "internalType": "address",
          "name": "user",
          "type": "address"
        },
        {
          "indexed": false,
          "internalType": "uint16[5]",
          "name": "lineup",
          "type": "uint16[5]"
        },
        {
          "indexed": false,
          "internalType": "uint256",
          "name": "participantIndex",
          "type": "uint256"
        }
      ],
      "name": "Joined",
      "type": "event"
    },
    {
      "anonymous": false,
      "inputs": [
        {
          "indexed": true,
          "internalType": "address",
          "name": "previousOwner",
          "type": "address"
        },
        {
          "indexed": true,
          "internalType": "address",
          "name": "newOwner",
          "type": "address"
        }
      ],
      "name": "OwnershipTransferred",
      "type": "event"
    },
    {
      "anonymous": false,
      "inputs": [
        {
          "indexed": true,
          "internalType": "address",
          "name": "winner",
          "type": "address"
        },
        {
          "indexed": false,
          "internalType": "uint256",
          "name": "amount",
          "type": "uint256"
        }
      ],
      "name": "PrizeClaimed",
      "type": "event"
    },
    {
      "anonymous": false,
      "inputs": [
        {
          "indexed": true,
          "internalType": "address",
          "name": "winner",
          "type": "address"
        },
        {
          "indexed": false,
          "internalType": "uint128",
          "name": "winningScore",
          "type": "uint128"
        }
      ],
      "name": "ScoresSubmitted",
      "type": "event"
    },
    {
      "anonymous": false,
      "inputs": [
        {
          "indexed": false,
          "internalType": "uint256",
          "name": "amount",
          "type": "uint256"
        }
      ],
      "name": "Seeded",
      "type": "event"
    },
    {
      "anonymous": false,
      "inputs": [
        {
          "indexed": false,
          "internalType": "address[]",
          "name": "tied",
          "type": "address[]"
        },
        {
          "indexed": false,
          "internalType": "address",
          "name": "winner",
          "type": "address"
        },
        {
          "indexed": false,
          "internalType": "uint256",
          "name": "seed",
          "type": "uint256"
        }
      ],
      "name": "TieBreak",
      "type": "event"
    },
    {
      "inputs": [],
      "name": "ADMIN_EMERGENCY_DELAY",
      "outputs": [
        {
          "internalType": "uint256",
          "name": "",
          "type": "uint256"
        }
      ],
      "stateMutability": "view",
      "type": "function"
    },
    {
      "inputs": [],
      "name": "DEPOSIT",
      "outputs": [
        {
          "internalType": "uint256",
          "name": "",
          "type": "uint256"
        }
      ],
      "stateMutability": "view",
      "type": "function"
    },
    {
      "inputs": [],
      "name": "EMERGENCY_DELAY",
      "outputs": [
        {
          "internalType": "uint256",
          "name": "",
          "type": "uint256"
        }
      ],
      "stateMutability": "view",
      "type": "function"
    },
    {
      "inputs": [],
      "name": "MAX_PARTICIPANTS",
      "outputs": [
        {
          "internalType": "uint256",
          "name": "",
          "type": "uint256"
        }
      ],
      "stateMutability": "view",
      "type": "function"
    },
    {
      "inputs": [],
      "name": "aUsdt",
      "outputs": [
        {
          "internalType": "contract IERC20",
          "name": "",
          "type": "address"
        }
      ],
      "stateMutability": "view",
      "type": "function"
    },
    {
      "inputs": [],
      "name": "aavePool",
      "outputs": [
        {
          "internalType": "contract IAavePool",
          "name": "",
          "type": "address"
        }
      ],
      "stateMutability": "view",
      "type": "function"
    },
    {
      "inputs": [],
      "name": "claimPrize",
      "outputs": [],
      "stateMutability": "nonpayable",
      "type": "function"
    },
    {
      "inputs": [
        {
          "internalType": "address",
          "name": "",
          "type": "address"
        }
      ],
      "name": "depositWithdrawn",
      "outputs": [
        {
          "internalType": "bool",
          "name": "",
          "type": "bool"
        }
      ],
      "stateMutability": "view",
      "type": "function"
    },
    {
      "inputs": [],
      "name": "emergencyActive",
      "outputs": [
        {
          "internalType": "bool",
          "name": "",
          "type": "bool"
        }
      ],
      "stateMutability": "view",
      "type": "function"
    },
    {
      "inputs": [],
      "name": "emergencyAdminWithdraw",
      "outputs": [],
      "stateMutability": "nonpayable",
      "type": "function"
    },
    {
      "inputs": [],
      "name": "emergencyUserWithdraw",
      "outputs": [],
      "stateMutability": "nonpayable",
      "type": "function"
    },
    {
      "inputs": [
        {
          "internalType": "address",
          "name": "",
          "type": "address"
        }
      ],
      "name": "emergencyWithdrawn",
      "outputs": [
        {
          "internalType": "bool",
          "name": "",
          "type": "bool"
        }
      ],
      "stateMutability": "view",
      "type": "function"
    },
    {
      "inputs": [],
      "name": "endTime",
      "outputs": [
        {
          "internalType": "uint256",
          "name": "",
          "type": "uint256"
        }
      ],
      "stateMutability": "view",
      "type": "function"
    },
    {
      "inputs": [],
      "name": "finalizeAndDistribute",
      "outputs": [],
      "stateMutability": "nonpayable",
      "type": "function"
    },
    {
      "inputs": [],
      "name": "finalized",
      "outputs": [
        {
          "internalType": "bool",
          "name": "",
          "type": "bool"
        }
      ],
      "stateMutability": "view",
      "type": "function"
    },
    {
      "inputs": [
        {
          "internalType": "address",
          "name": "user",
          "type": "address"
        }
      ],
      "name": "getLineup",
      "outputs": [
        {
          "internalType": "uint16[5]",
          "name": "",
          "type": "uint16[5]"
        }
      ],
      "stateMutability": "view",
      "type": "function"
    },
    {
      "inputs": [
        {
          "internalType": "address",
          "name": "",
          "type": "address"
        }
      ],
      "name": "hasJoined",
      "outputs": [
        {
          "internalType": "bool",
          "name": "",
          "type": "bool"
        }
      ],
      "stateMutability": "view",
      "type": "function"
    },
    {
      "inputs": [
        {
          "internalType": "uint16[5]",
          "name": "lineup",
          "type": "uint16[5]"
        }
      ],
      "name": "joinTournament",
      "outputs": [],
      "stateMutability": "nonpayable",
      "type": "function"
    },
    {
      "inputs": [],
      "name": "lockTime",
      "outputs": [
        {
          "internalType": "uint256",
          "name": "",
          "type": "uint256"
        }
      ],
      "stateMutability": "view",
      "type": "function"
    },
    {
      "inputs": [],
      "name": "oracle",
      "outputs": [
        {
          "internalType": "address",
          "name": "",
          "type": "address"
        }
      ],
      "stateMutability": "view",
      "type": "function"
    },
    {
      "inputs": [],
      "name": "owner",
      "outputs": [
        {
          "internalType": "address",
          "name": "",
          "type": "address"
        }
      ],
      "stateMutability": "view",
      "type": "function"
    },
    {
      "inputs": [
        {
          "internalType": "uint256",
          "name": "",
          "type": "uint256"
        }
      ],
      "name": "participants",
      "outputs": [
        {
          "internalType": "address",
          "name": "",
          "type": "address"
        }
      ],
      "stateMutability": "view",
      "type": "function"
    },
    {
      "inputs": [],
      "name": "participantsLength",
      "outputs": [
        {
          "internalType": "uint256",
          "name": "",
          "type": "uint256"
        }
      ],
      "stateMutability": "view",
      "type": "function"
    },
    {
      "inputs": [],
      "name": "prizeAmount",
      "outputs": [
        {
          "internalType": "uint128",
          "name": "",
          "type": "uint128"
        }
      ],
      "stateMutability": "view",
      "type": "function"
    },
    {
      "inputs": [],
      "name": "prizeClaimed",
      "outputs": [
        {
          "internalType": "bool",
          "name": "",
          "type": "bool"
        }
      ],
      "stateMutability": "view",
      "type": "function"
    },
    {
      "inputs": [],
      "name": "renounceOwnership",
      "outputs": [],
      "stateMutability": "nonpayable",
      "type": "function"
    },
    {
      "inputs": [
        {
          "internalType": "address",
          "name": "",
          "type": "address"
        }
      ],
      "name": "scores",
      "outputs": [
        {
          "internalType": "uint128",
          "name": "",
          "type": "uint128"
        }
      ],
      "stateMutability": "view",
      "type": "function"
    },
    {
      "inputs": [],
      "name": "scoresSubmitted",
      "outputs": [
        {
          "internalType": "bool",
          "name": "",
          "type": "bool"
        }
      ],
      "stateMutability": "view",
      "type": "function"
    },
    {
      "inputs": [],
      "name": "seedAmount",
      "outputs": [
        {
          "internalType": "uint256",
          "name": "",
          "type": "uint256"
        }
      ],
      "stateMutability": "view",
      "type": "function"
    },
    {
      "inputs": [
        {
          "internalType": "uint256",
          "name": "amount",
          "type": "uint256"
        }
      ],
      "name": "seedPool",
      "outputs": [],
      "stateMutability": "nonpayable",
      "type": "function"
    },
    {
      "inputs": [
        {
          "internalType": "address[]",
          "name": "users",
          "type": "address[]"
        },
        {
          "internalType": "uint128[]",
          "name": "points",
          "type": "uint128[]"
        },
        {
          "internalType": "uint256",
          "name": "randomSeed",
          "type": "uint256"
        }
      ],
      "name": "submitScores",
      "outputs": [],
      "stateMutability": "nonpayable",
      "type": "function"
    },
    {
      "inputs": [
        {
          "internalType": "address",
          "name": "newOwner",
          "type": "address"
        }
      ],
      "name": "transferOwnership",
      "outputs": [],
      "stateMutability": "nonpayable",
      "type": "function"
    },
    {
      "inputs": [],
      "name": "triggerEmergency",
      "outputs": [],
      "stateMutability": "nonpayable",
      "type": "function"
    },
    {
      "inputs": [],
      "name": "usdt",
      "outputs": [
        {
          "internalType": "contract IERC20",
          "name": "",
          "type": "address"
        }
      ],
      "stateMutability": "view",
      "type": "function"
    },
    {
      "inputs": [],
      "name": "winner",
      "outputs": [
        {
          "internalType": "address",
          "name": "",
          "type": "address"
        }
      ],
      "stateMutability": "view",
      "type": "function"
    },
    {
      "inputs": [],
      "name": "winningScore",
      "outputs": [
        {
          "internalType": "uint128",
          "name": "",
          "type": "uint128"
        }
      ],
      "stateMutability": "view",
      "type": "function"
    },
    {
      "inputs": [],
      "name": "withdrawDeposit",
      "outputs": [],
      "stateMutability": "nonpayable",
      "type": "function"
    }
  ],
  "bytecode": "0x610140346200023e57601f620025ad38819003918201601f1916830191906001600160401b0383118484101762000243578160c092859260409586528339810103126200023e5781516001600160a01b0380821692918381036200023e576200006b6020860162000259565b838601519183831683036200023e57620000886060880162000259565b9360a0608089015198015196331562000226576000543360018060a01b03198216176000558751923391167f8be0079c531659141344cd1fd0a4f28419497f9722a3daafe3b4186f6b6457e0600080a360017f9b779b17422d0df92223018b32b4d1fa46e071723d6817e2486d003becc55f00551562000217575085871015620002065760805260a05260c05260e052610100928352610120918252519061233e92836200026f84396080518381816113590152611658015260a051838181610222015281816104bf015281816107bd01528181610bdc01528181610d3a01528181610fb10152818161150801528181611b6f01528181611c090152611d3e015260c0518381816105070152818161082a01528181610d8801528181611003015281816112490152611db0015260e05183818161042c01528181610ceb01528181610f6e01526115a00152518281816106190152611ca30152518181816103bf01528181610e2301528181610e7d0152818161168e0152611b370152f35b8451630cdb81f360e01b8152600490fd5b636ab74eb360e11b8152600490fd5b8651631e4fbdf760e01b815260006004820152602490fd5b600080fd5b634e487b7160e01b600052604160045260246000fd5b51906001600160a01b03821682036200023e5756fe6040608081526004908136101561001557600080fd5b600091823560e01c8063025d26bd14611d045780630581a29914611cc65780630d66808714611c8b578063117df08814611b9e5780632f48ab7d14611b5a5780633197cbb614611b1f57806335c1d34914611adf5780634158506a14611ac25780635026f613146115f7578063546216f1146115cf5780637047ec181461158b57806370740ac91461146d578063715018a61461141057806376dd110f146113ce578063785fa627146113a6578063788477ef146113885780637dc0d1d01461134457806382944e2d14611326578063877f4e12146112e85780638da5cb5b146112c05780639042bbf31461129c5780639db8512014611278578063a03e4bc314611234578063a52ec4a7146111f6578063b128511d14610ef7578063b3f05b9714610ed0578063c5774a3f14610eb1578063d3f86a0014610b80578063d81c8e5214610b62578063dfbf53ae14610b35578063e5f7322f14610a8a578063e74be2dd146105f3578063ea33669314610396578063eddaa3ab1461036f578063f2fde38b146102d7578063f3baf070146102b65763fe0f869f146101b857600080fd5b346102b257826003193601126102b2576101d061216c565b60ff600a5460081c16156102a457338352600360205260ff82842054161561029657338352600b60205260ff82842054166102885750338252600b602052808220600160ff19825416179055610246337f000000000000000000000000000000000000000000000000000000000000000061219c565b51620f424081527f0ee4d908b27cd58dbfe0bfaa82ff653e3747caf42cedf537ba6d49772ea693b460203392a260016000805160206122e98339815191525580f35b9051637369630360e11b8152fd5b905163c394a43360e01b8152fd5b90516393282d7960e01b8152fd5b8280fd5b5050346102d357816003193601126102d357602090516101f48152f35b5080fd5b5090346102b25760203660031901126102b2576001600160a01b0382358181169391929084900361036b5761030a612140565b8315610355575050600054826bffffffffffffffffffffffff60a01b821617600055167f8be0079c531659141344cd1fd0a4f28419497f9722a3daafe3b4186f6b6457e0600080a380f35b51631e4fbdf760e01b8152908101849052602490fd5b8480fd5b5050346102d357816003193601126102d35760209060ff600a5460081c1690519015158152f35b50346102b257826003193601126102b2576103af61216c565b600a5460ff8160081c166105e4577f000000000000000000000000000000000000000000000000000000000000000062278d0081018091116105d15742106105c25760ff600654166105b35761ff00191661010017600a5581516370a0823160e01b8152308282015260209290916001600160a01b0384846024817f000000000000000000000000000000000000000000000000000000000000000085165afa9384156105a957908592918795610578575b50846104a9575b86837f57ffbb5a6ee8a2ffcfe49581a3c44cc042f09353092758bcbe3c0d96de6b30528651914283523392a260016000805160206122e98339815191525580f35b8351631a4ca37b60e21b81526001600160a01b037f00000000000000000000000000000000000000000000000000000000000000008316169281019283526020830195909552306040830152929392839182908890829060600103927f0000000000000000000000000000000000000000000000000000000000000000165af1801561056e57908391610540575b90818392610468565b813d8311610567575b6105538183612079565b81010312610562578138610537565b600080fd5b503d610549565b82513d86823e3d90fd5b8381949296503d83116105a2575b6105908183612079565b81010312610562578491519338610461565b503d610586565b83513d88823e3d90fd5b509051639fbfc58960e01b8152fd5b50905163fc62b32960e01b8152fd5b634e487b7160e01b855260118352602485fd5b509051638963872160e01b8152fd5b508290346102d35760a03660031901126102d3573660a4116102d35761061761216c565b7f0000000000000000000000000000000000000000000000000000000000000000421015610a7c573382526020906003825260ff93848185205416610a70576101f482541015610a63579392919082945b8486166005808210156107475761ffff8061068a6106858561226b565b612131565b1615801561072e575b61071e5760019283810189811161070b57845b6106be575b5050505060019690960185169550610668565b898116848110156107055783806106e36106856106dd6106858861226b565b9461226b565b169116146106f55784018916846106a6565b855163727552e360e11b81528790fd5b506106ab565b634e487b7160e01b895260118752602489fd5b5050505163727552e360e11b8152fd5b506103e88161073f6106858661226b565b161015610693565b8584868533845260038252808420926001938460ff198254161790556002835281852081908691875b878760058310610a3b57505050505580549168010000000000000000831015610a285784830182556107a183611fb5565b9080549160031b60018060a01b03928333831b921b19161790557f0000000000000000000000000000000000000000000000000000000000000000906000908351926323b872dd60e01b835233865260249330855288620f4240948560445260648180865af18a60005114811615610a13575b8187526000606052156109fe57509089939291817f00000000000000000000000000000000000000000000000000000000000000001690600087518b63095ea7b360e01b92838152858c5287895260448180875af1908d600051148216156109ef575b895215610958575b50813b1561094a578560849281958951978896879563617ba03760e01b8752168c860152840152306044840152600060648401525af1801561094e57610936575b5050519285845b60058210610911575050505060a08201527f7500e4b67ad8d5e840d07e0546b11153eb264da6b09232f6cf00f6b9c11021af60c03392a26000805160206122e98339815191525580f35b83359061ffff821680920361093257908152928201929086019082016108c7565b8880fd5b61093f90612033565b61094a5785876108c0565b8580fd5b83513d84823e3d90fd5b90919293949550610969838361227d565b156109d8578960008851928152848a5286885260448180865af18b600051148116156109b9575b818852156109a457908b959493929161087f565b635274afe760e01b8152908316818801528490fd5b8b8115166109ce57823b15153d151616610990565b503d6000823e3d90fd5b8651635274afe760e01b8152848316818a01528690fd5b90833b15153d15161690610877565b635274afe760e01b8152908216818701528390fd5b8a8115166109ce57823b15153d151616610814565b634e487b7160e01b865260418252602486fd5b90919294610a4886612131565b9084881b9161ffff809116831b921b19161794019101610770565b516327a01e0760e21b8152fd5b51621d934160e11b8152fd5b825163118d2e6960e31b8152fd5b50346102b25760209081600319360112610b3157356001600160a01b03811690819003610b315760a08351610abe8161205d565b369037835260028152818320825190549261ffff84818096168452818160101c16858501528181861c1683850152818160301c166060850152821c166080830152610b088261205d565b519390845b60058310610b1a5760a086f35b838060019287855116815201920192019190610b0d565b8380fd5b5050346102d357816003193601126102d357600654905160089190911c6001600160a01b03168152602090f35b5050346102d357816003193601126102d35760209051620f42408152f35b50346102b257826003193601126102b257610b99612140565b610ba161216c565b600a5460081c60ff168080610e7a575b15610e21575b15610cc5575b81516370a0823160e01b815230918101919091526001600160a01b03907f00000000000000000000000000000000000000000000000000000000000000006020826024818685165afa918215610cbb578592610c67575b509082610c49826020947f5fafa99d0643513820be26656b45130b01e1c03062e1266bf36f88cbd3bd96959689541690612221565b8554169351908152a260016000805160206122e98339815191525580f35b91506020823d602011610cb3575b81610c8260209383612079565b81010312610562579051907f5fafa99d0643513820be26656b45130b01e1c03062e1266bf36f88cbd3bd9695610c14565b3d9150610c75565b84513d87823e3d90fd5b81516370a0823160e01b8152308282015260209084906001600160a01b039083816024817f000000000000000000000000000000000000000000000000000000000000000086165afa908115610e17578391610de6575b5080610d2c575b50505050610bbd565b8551631a4ca37b60e21b81527f000000000000000000000000000000000000000000000000000000000000000083166001600160a01b0316868201908152602081019290925230604083015292849284928390036060019183917f0000000000000000000000000000000000000000000000000000000000000000165af18015610cbb57610dbd575b808591610d23565b813d8311610ddf575b610dd08183612079565b81010312610562573880610db5565b503d610dc6565b809350848092503d8311610e10575b610dff8183612079565b810103126105625785915138610d1c565b503d610df5565b86513d85823e3d90fd5b7f000000000000000000000000000000000000000000000000000000000000000062093a8081018091116105d1574210610e6b57815415610bb75750905163a755e2d760e01b8152fd5b50905163085de62560e01b8152fd5b507f0000000000000000000000000000000000000000000000000000000000000000624f1a0081018091116105d157421015610bb1565b5050346102d357816003193601126102d3576020906001549051908152f35b5050346102d357816003193601126102d35760209060ff60075460801c1690519015158152f35b5090346102b257826003193601126102b257610f1161216c565b60ff600a5460081c166111e95760ff60065416156111dc5760075460ff8160801c166111ce5760ff60801b1916600160801b1760075580516370a0823160e01b80825230848301529260209190856001600160a01b0384846024817f000000000000000000000000000000000000000000000000000000000000000085165afa9384156111c457908591839561118f575b508651631a4ca37b60e21b81527f000000000000000000000000000000000000000000000000000000000000000082166001600160a01b038116868301908152602081019790975230604088015295909384929183919082906060015b03927f0000000000000000000000000000000000000000000000000000000000000000165af180156111855790849161115c575b5050805494620f4240958087029687040361114957906024849286519485938492835230908301525afa90811561113f5785916110f2575b507fb968440accd1ce5fa60b00de8bb8d8487eb2fda3c3701fb30fea3f69aa910a489361109791612124565b906001600160801b0382166001600160801b031960085416176008556001548083116000146110ea576110ca9083612124565b905b8351928352820152a160016000805160206122e98339815191525580f35b5084906110cc565b90508181813d8311611138575b6111098183612079565b8101031261056257517fb968440accd1ce5fa60b00de8bb8d8487eb2fda3c3701fb30fea3f69aa910a4861106b565b503d6110ff565b83513d87823e3d90fd5b634e487b7160e01b875260118252602487fd5b813d831161117e575b61116f8183612079565b81010312610562578238611033565b503d611165565b85513d89823e3d90fd5b9250935081813d83116111bd575b6111a78183612079565b810103126105625783610fff8892519490610fa2565b503d61119d565b86513d84823e3d90fd5b505163475a253560e01b8152fd5b51634bf5695f60e11b8152fd5b51632222a67d60e11b8152fd5b50346102b25760203660031901126102b257356001600160a01b038116908190036102b257818360ff92602095526009855220541690519015158152f35b5050346102d357816003193601126102d357517f00000000000000000000000000000000000000000000000000000000000000006001600160a01b03168152602090f35b5050346102d357816003193601126102d35760209060ff6006541690519015158152f35b5050346102d357816003193601126102d35760209060ff600a541690519015158152f35b5050346102d357816003193601126102d357905490516001600160a01b039091168152602090f35b50346102b25760203660031901126102b257356001600160a01b038116908190036102b257818360ff92602095526003855220541690519015158152f35b5050346102d357816003193601126102d3576020905162278d008152f35b5050346102d357816003193601126102d357517f00000000000000000000000000000000000000000000000000000000000000006001600160a01b03168152602090f35b5050346102d357816003193601126102d35760209051624f1a008152f35b5050346102d357816003193601126102d3576020906001600160801b03600854169051908152f35b50346102b25760203660031901126102b257356001600160a01b038116908190036102b25781836001600160801b039260209552600585522054169051908152f35b833461146a578060031936011261146a57611429612140565b600080546001600160a01b0319811682556001600160a01b03167f8be0079c531659141344cd1fd0a4f28419497f9722a3daafe3b4186f6b6457e08280a380f35b80fd5b5090346102b257826003193601126102b25761148761216c565b600a5460ff8160081c1661157d5760ff60075460801c161561156f5760018060a01b03908160065460081c16938433036115615760ff821661155357509160209160017f95681e512bc0fe659e195e06c283eada494316f3d801213e48e7101af92bf7709460ff191617600a5561152c6001600160801b03958660085416907f0000000000000000000000000000000000000000000000000000000000000000612221565b60065460081c1693600854169051908152a260016000805160206122e98339815191525580f35b8351630c8d9eab60e31b8152fd5b83516330c6392160e11b8152fd5b5051634bf5695f60e11b8152fd5b5051632222a67d60e11b8152fd5b5050346102d357816003193601126102d357517f00000000000000000000000000000000000000000000000000000000000000006001600160a01b03168152602090f35b5050346102d357816003193601126102d3576020906001600160801b03600754169051908152f35b508290346102d35760603660031901126102d35767ffffffffffffffff928135848111610b315761162b9036908401612002565b94909160243582811161094a576116459036908601612002565b90946001600160a01b03939091906044357f000000000000000000000000000000000000000000000000000000000000000086163303611ab25760ff600a5460081c16611aa2577f00000000000000000000000000000000000000000000000000000000000000004210611a925760ff60065416611a8257828a03611a6f5783548a03611a6f578915611a5f57889992969950889789938a5b81811061196757508a906117096116f4876120f8565b966117018a519889612079565b8088526120f8565b9c60209a8b88019e8f90601f1901903690378c845b848110611906575050505050505060019160018451146000146117d85750505051156117c35750817fca444fbe8d4fc8681e3a9c4953b08f4514b8e4192a92474d7b69bd74a1e919cd9495965116905b60068054600780546fffffffffffffffffffffffffffffffff19166001600160801b039990991698891790556001600160a81b031916600884901b610100600160a81b0316176001179055519485521692a280f35b603290634e487b7160e01b6000525260246000fd5b60009a939a9594919295194301904382116118f3578b51908651918a83019386855240888401526060830152606082526080820190828210908211176118de5786525190208a519182156118cb57508691611837919b969b0686612110565b51169383519960608b019160608c525180925260808b0193918a5b8181106118b6575050505097807f9a34e97730bb3febb7eb6af47350b8c9fdafc0422db59a2f49b880130fdb8653927fca444fbe8d4fc8681e3a9c4953b08f4514b8e4192a92474d7b69bd74a1e919cd98999a8689840152858301520390a161176e565b83518916865294890194928901928201611852565b634e487b7160e01b8b526012905260248afd5b604184634e487b7160e01b6000525260246000fd5b634e487b7160e01b8b526011835260248bfd5b60019161191c61191783868b61209b565b6120bf565b6001600160801b03908116911614611937575b018d9061171e565b61194a61194582878761209b565b6120ab565b8d61195e611957896120d3565b988d612110565b9116905261192f565b9461197a61194587849f9c9d948d61209b565b898061198589611fb5565b90549060031b1c16911603611a4f578a8a6119eb8f8f8c8b918f6119bf61194585611917976119b98f838e6119179261209b565b9a61209b565b168152600560205220946001600160801b0395868096166001600160801b03198254161790558861209b565b8482169216821015611a195750505050611a09611917858b8461209b565b98600180955b019b90989b6116de565b611a2c611917898f969f889b969b61209b565b1614611a3b575b600190611a0f565b94611a476001916120d3565b959050611a33565b8751633318b02b60e11b81528790fd5b84516308b6a47360e41b81528490fd5b84516001621398b960e31b031981528490fd5b8451639fbfc58960e01b81528490fd5b8451630c5fd11960e11b81528490fd5b8451632222a67d60e11b81528490fd5b8451631bc2178f60e01b81528490fd5b50346102b257826003193601126102b25760209250549051908152f35b50913461146a57602036600319011261146a578235925483101561146a5750611b09602092611fb5565b905491519160018060a01b039160031b1c168152f35b5050346102d357816003193601126102d357602090517f00000000000000000000000000000000000000000000000000000000000000008152f35b5050346102d357816003193601126102d357517f00000000000000000000000000000000000000000000000000000000000000006001600160a01b03168152602090f35b50346102b257826003193601126102b257611bb761216c565b60ff60075460801c1615611c7d57338352600360205260ff82842054161561029657338352600960205260ff8284205416611c6f57503382526009602052808220600160ff19825416179055611c2d337f000000000000000000000000000000000000000000000000000000000000000061219c565b51620f424081527f4482101800a5c2e900f4156e57e05e19ffd7b366cde579553d723fd3abb2180e60203392a260016000805160206122e98339815191525580f35b9051636507689f60e01b8152fd5b9051634bf5695f60e11b8152fd5b5050346102d357816003193601126102d357602090517f00000000000000000000000000000000000000000000000000000000000000008152f35b50346102b25760203660031901126102b257356001600160a01b038116908190036102b257818360ff9260209552600b855220541690519015158152f35b5090346102b25760203660031901126102b257813590611d22612140565b611d2a61216c565b8115611fa6576001928354611f98578284557f000000000000000000000000000000000000000000000000000000000000000082516323b872dd60e01b87523383526024903082528560445260208860648180875af187895114811615611f7a575b8186528860605215611f605750835163095ea7b360e01b8089526001600160a01b037f000000000000000000000000000000000000000000000000000000000000000081168087528885528a95919490939192909160208760448180885af1908b885114821615611f51575b895215611ec0575b50823b1561036b576084928886928951988997889663617ba03760e01b885216908601528401523060448401528160648401525af18015611eb657611e7e575b507ffe8b095e1a768e83a862933c32f2bd9b62b7b87f8fc8843d83ccce205208b6569160209151908152a16000805160206122e98339815191525580f35b9160209194611ead7ffe8b095e1a768e83a862933c32f2bd9b62b7b87f8fc8843d83ccce205208b65694612033565b94915091611e40565b82513d87823e3d90fd5b909192939450611ed0848461227d565b15611f3a578651908a5283865287825260208a60448180875af1898b5114811615611f1c575b81885215611f0957908994939291611e00565b635274afe760e01b815282851681870152fd5b89811516611f3157833b15153d151616611ef6565b503d8a823e3d90fd5b508551635274afe760e01b81529184168286015290fd5b90843b15153d15161690611df8565b635274afe760e01b81526001600160a01b03831681850152fd5b87811516611f8f57833b15153d151616611d8c565b503d88823e3d90fd5b90516308627e3960e31b8152fd5b51631f2a200560e01b81529050fd5b600454811015611fec5760046000527f8a35acfbc15ff81a39ae7d344fd709f28e8600b4aa8c65c6b64bfe7fe36bd19b0190600090565b634e487b7160e01b600052603260045260246000fd5b9181601f840112156105625782359167ffffffffffffffff8311610562576020808501948460051b01011161056257565b67ffffffffffffffff811161204757604052565b634e487b7160e01b600052604160045260246000fd5b60a0810190811067ffffffffffffffff82111761204757604052565b90601f8019910116810190811067ffffffffffffffff82111761204757604052565b9190811015611fec5760051b0190565b356001600160a01b03811681036105625790565b356001600160801b03811681036105625790565b60001981146120e25760010190565b634e487b7160e01b600052601160045260246000fd5b67ffffffffffffffff81116120475760051b60200190565b8051821015611fec5760209160051b010190565b919082039182116120e257565b3561ffff811681036105625790565b6000546001600160a01b0316330361215457565b60405163118cdaa760e01b8152336004820152602490fd5b6000805160206122e9833981519152600281541461218a5760029055565b604051633ee5aeb560e01b8152600490fd5b60405163a9059cbb60e01b60009081526001600160a01b03938416600452620f42406024529092919060209060448180855af1600160005114811615612201575b83604052156121eb57505050565b635274afe760e01b835216600482015260249150fd5b600181151661221757813b15153d1516166121dd565b833d6000823e3d90fd5b60405163a9059cbb60e01b60009081526001600160a01b039384166004526024949094529260209060448180855af16001600051148116156122015783604052156121eb57505050565b6005811015611fec5760051b60040190565b60405163095ea7b360e01b60009081526001600160a01b0390931660045260248390529192919060208460448180855af19360018151148516156122c3575b5050604052565b600185939515166122de57503b15153d1516169138806122bc565b84903d90823e3d90fdfe9b779b17422d0df92223018b32b4d1fa46e071723d6817e2486d003becc55f00a2646970667358221220e3feb138290f299aa9291b4a60b680129a65fb2dd4e608fc896be2302b9bac9564736f6c63430008180033",
  "linkReferences": {},
  "deployedLinkReferences": {}
}